:020000040000FA
:10000000110B070C210001024307030A010CAA008F
:100010000307AB000306010A0008E2014008450897
:1000200049084C08E201FE08F008E208D608C908B1
:10003000BE08B308A908A00897088E0886087F089C
:10004000770871086A0864085F08590854084F085F
:100050004B08470843083F08E20189086B089F08DE
:100060002E087F088E0870089F0829089F08BF087F
:1000700089086B089F082E089F08BF088E08700823
:100080009F0809087F089F088708850867089F0858
:100090009108930855085F08910891087008900826
:1000A0006E088E084B0876081508E20199089B082F
:1000B000AA08A908090255092600210081030600A3
:1000C000000868006F00460466066F0AAF02640C01
:1000D0008F000307640A040C280046050008460543
:1000E000140C8F0003070008A802280C8F000307D8
:1000F0000008A8023C0C8F0003070008A802500C5F
:100100008F000306A8020008140C2400FC0C5C01FC
:100110003E0003043E033E031E02E401030C7D0186
:100120003E005C01BE00FC0C3C0043079C0A1C0224
:1001300060011D022001000803047D037D03030507
:100140007C037C03FE00950A3C00140C2400FC0C8C
:100150005C013D0003043D031D03E40100023D007A
:10016000030C3E005C01BE004307B90A030C7D018D
:1001700000083D033D03FE00B40A030433033203C9
:10018000310303070008E10CB30100086109040C06
:1001900088014307C60A00083C001F0C5C011F0FC2
:1001A0004306000B400C2A000D0C2B00030C2D0005
:1001B000E00C5C013D00BD033D033D024306E60A41
:1001C00003042D032B032A03FD02E00A1F0C5C012C
:1001D00012092C00040CA6010C023C00EA004A02A1
:1001E0004307FA0AEB004B024307FB0AED004D02FE
:1001F0004306FE0AFB0AFC02EE0AEA0A460500086C
:10020000D00C2A00070C2B00BC033C03070C7C011C
:1002100043060F0B03042B032A03FC020A0B0109FC
:100220000008410C02000B0C06007000A50C310008
:10023000460569005A0909020D09CC09A9024907B6
:100240001A0B0B0C0600C6096900860C2D00ED0286
:100250002A0B110B5A09FA0C2A006B000109A9029A
:10026000030C69016109040C88014306270B0B0C80
:1002700006000D023100C609F40C2A00010C2B0007
:10028000010910023C00B002BD0913029201910164
:10029000030E3D0084097F001F02A4091D022900EE
:1002A0005A0909020D09CC090B0C0600640C2A003E
:1002B0006B000109BF0210029F0043074C0B7F0037
:1002C000FA0C2D00140C2A006B0001090D023100FC
:1002D000ED004306BF0B6109040C88014306620B65
:1002E0000A0C2A006B0001096109040C880143060D
:1002F000600B080229005A0909020D09CC090B0CF0
:100300000600C6091F02A4090902BD004307BF0B6E
:10031000BF0210029F004307600B1002060F430646
:10032000A80B060F0C0F4306A80B0C0F120F430669
:10033000A80B120F180F4306A80B180F200F430627
:10034000AA0B200FF40C2A00010C2B000109410B11
:100350001002AC0B7000280C3E007F001F022C091D
:10036000CC09BF021E029F004307AE0B6A00040CBB
:100370002B000109200C90014307410B110B380C95
:10038000CC09F00030024306EB0B030C2900190CDA
:1003900090000307CD0B3000DD0BE9000A0C900044
:1003A0000307D40B3000DD0BE900050C90000307B8
:1003B000DB0B3000DD0BE900F0005A09F40C2A00D9
:1003C000010C2B0001090B0C0600F40C2A00010C97
:1003D0002B000109C20BE80C2A00030C2B000109B9
:0203E000240BEC
:0403E2000008000807
:021FFE00EB0FE7
:00000001FF
