:020000040000FA
:100000001D0B070C210001024307030A010CAA0083
:100010000307AB000306010A0008E201D008070845
:10002000E8080308F4080108FA0800087D08000839
:1000300040080008E2014008450849084C08E20170
:10004000FE08F008E208D608C908BE08B308A908E7
:10005000A00897088E0886087F08770871086A0844
:1000600064085F08590854084F084B0847084308BC
:100070003F08E20189086B089F082E087F088E0858
:1000800070089F0829089F08BF0889086B089F0807
:100090002E089F08BF088E0870089F0809087F086F
:1000A0009F088708850867089F08910893085508E6
:1000B0005F0891089108700890086E088E084B0838
:1000C00076081508E20109080B080A080908E20188
:1000D000090809080A080A08090262092600090233
:1000E00067090600000868006F0046046606810A7A
:1000F000AF02640C8F000307760A040C2800460543
:1001000000084605140C8F0003070008A802280CFD
:100110008F0003070008A8023C0C8F0003070008AB
:10012000A802500C8F000306A8020008140C24003B
:10013000FC0C5C013E0003043E033E031E02E4018E
:10014000030C7D013E005C01BE00FC0C3C0043073B
:10015000AE0A1C0260011D022001000803047D0399
:100160007D0303057C037C03FE00A70A3C00140CFE
:100170002400FC0C5C013D0003043D031D03E4016D
:1001800000023D00030C3E005C01BE004307CB0AA9
:10019000030C7D0100083D033D03FE00C60A030475
:1001A00033033203310303070008E10CB3010008F5
:1001B0007309040C88014307D80A00083C001F0C8F
:1001C0005C011F0F4306120B400C2A000D0C2B0084
:1001D000030C2D00E00C5C013D00BD033D033D021E
:1001E0004306F80A03042D032B032A03FD02F20A37
:1001F0001F0C5C011F092C00040CA6010C023C0022
:10020000EA004A0243070C0BEB004B0243070D0BBD
:10021000ED004D024306100B0D0BFC02000BFC0A17
:1002200046050008BC030E0C7C011C020D092A00C7
:100230009C020D092B0001090008410C02000B0C67
:1002400006007000A50C3100460569006C09090222
:100250001A09DE09A9024907260B0B0C0600D8096A
:100260006900860C2D00ED02360B1D0B6C09FA0C93
:100270002A006B000109A902030C69017309040C2F
:1002800088014306330B0B0C06000D023100D80920
:10029000F40C2A00010C2B00010910023C00B002F2
:1002A000CF09130292019101030E3D0096097F00D0
:1002B0001F02B6091D0229006C0909021A09DE098C
:1002C0000B0C0600640C2A006B000109BF0210022F
:1002D0009F004307580B7F00FA0C2D00140C2A00D6
:1002E0006B0001090D023100ED004306CB0B7309D1
:1002F000040C880143066E0B0A0C2A006B000109EE
:100300007309040C880143066C0B080229006C0970
:1003100009021A09DE090B0C0600D8091F02B609EA
:100320000902BD004307CB0BBF0210029F00430729
:100330006C0B1002060F4306B40B060F0C0F43069E
:10034000B40B0C0F120F4306B40B120F180F430619
:10035000B40B180F200F4306B60B200FF40C2A0025
:10036000010C2B0001094D0B1002B80B7000280C7A
:100370003E007F001F023909DE09BF021E029F00F6
:100380004307BA0B6A00040C2B000109200C9001F2
:1003900043074D0B1D0B580CDE09F00030024306DD
:1003A000F70B030C2900190C90000307D90B300040
:1003B000E90BE9000A0C90000307E00B3000E90BA1
:1003C000E900050C90000307E70B3000E90BE9009A
:1003D000F0006C09F40C2A00010C2B0001090B0C35
:1003E0000600F40C2A00010C2B000109CE0BE80CCE
:0A03F0002A00030C2B000109300B5A
:0403FA0000080008EF
:021FFE00EB0FE7
:00000001FF
