:020000040000FA
:100000001D0B070C210001024307030A010CAA0083
:100010000307AB000306010A0008E201D008070845
:10002000E8080308F4080108FA0800087D08000839
:1000300040080008E2014008450849084C08E20170
:10004000FE08F008E208D608C908BE08B308A908E7
:10005000A00897088E0886087F08770871086A0844
:1000600064085F08590854084F084B0847084308BC
:100070003F08E20189086B089F082E087F088E0858
:1000800070089F0829089F08BF0889086B089F0807
:100090002E089F08BF088E0870089F0809087F086F
:1000A0009F088708850867089F08910893085508E6
:1000B0005F0891089108700890086E088E084B0838
:1000C00076081508E20109080B080A080908E20188
:1000D000090809080A080A08090262092600090233
:1000E00067090600000868006F0046046606810A7A
:1000F000AF02640C8F000307760A040C2800460543
:1001000000084605140C8F0003070008A802280CFD
:100110008F0003070008A8023C0C8F0003070008AB
:10012000A802500C8F000306A8020008180C240037
:10013000FC0C510133000304330333031302E401C5
:10014000030C720133005101B300FC0C3100430772
:10015000AE0A1102600112022001000803047203BA
:100160007203030571037103F300A70A3100180C31
:100170002400FC0C51013200030432031203E40199
:1001800000023200030C33005101B3004307CB0AD5
:10019000030C7201000832033203F300C60A0304A1
:1001A00037033603350303070008E10CB7010008E5
:1001B0007309040C88014307D80A000831001F0C9A
:1001C00051011F0F4306120B400C2A000D0C2B008F
:1001D000030C2D00E00C51013200B2033203320255
:1001E0004306F80A03042D032B032A03F202F20A42
:1001F0001F0C51011F092C00040CA6010C02310038
:10020000EA004A0243070C0BEB004B0243070D0BBD
:10021000ED004D024306100B0D0BF102000BFC0A22
:1002200046050008B1030E0C710111020D092A00E8
:1002300091020D092B0001090008410C02000B0C72
:1002400006007000A50C3500460569006C0909021E
:100250001A09DE09A9024907260B0B0C0600D8096A
:100260006900860C2D00ED02360B03006C09FA0CB8
:100270002A006B000109A902030C69017309040C2F
:1002800088014306330B0B0C06000D023500D8091C
:10029000F40C2A00010C2B00010910023100B002FD
:1002A000CF09170296019501030E320096097400DA
:1002B0001402B609120229006C0909021A09DE09A2
:1002C0000B0C0600640C2A006B000109B40210023A
:1002D00094004307580B7400FA0C2D00140C2A00EC
:1002E0006B0001090D023500ED004306C70B7309D1
:1002F000040C880143066E0B0A0C2A006B000109EE
:100300007309040C880143066C0B080229006C0970
:1003100009021A09DE090B0C0600D8091402B609F5
:100320000902B2004307C70BB4021002940043074E
:100330006C0B1002060F4306B40B060F0C0F43069E
:10034000B40B0C0F120F4306B40B120F180F430619
:10035000B40B180F200F4306B60B200FF40C2A0025
:10036000010C2B0001094D0B1002B80B7000280C7A
:100370003300740014023909DE09B4021302940038
:100380004307BA0B6A00040C2B0001094D0B580CF3
:10039000DE09F00030024306F30B030C2900190CB0
:1003A00090000307D50B3000E50BE9000A0C900024
:1003B0000307DC0B3000E50BE900050C9000030798
:1003C000E30B3000E50BE900F0006C09F40C2A00A7
:1003D000010C2B0001090B0C0600F40C2A00010C87
:1003E0002B000109CA0BE80C2A00030C2B000109A1
:0203F000300BD0
:0403F20000080008F7
:021FFE00EB0FE7
:00000001FF
