:020000040000FA
:10000000240B2A024307070A2B0243060008EA00D2
:100010004A024306EB00070C2100410C02000102DA
:1000200043070F0A010AE201D0080708E80803089D
:10003000F4080108FA0800087D08000840080008D4
:10004000E2014008450849084C08E201FE08F008B2
:10005000E208D608C908BE08B308A908A00897088E
:100060008E0886087F08770871086A0864085F08A8
:10007000590854084F084B08470843083F08E20155
:1000800089086B089F082E087F088E0870089F0853
:1000900029089F08BF0889086B089F082E089F0839
:1000A000BF088E0870089F0809087F089F08870806
:1000B000850867089F089108930855085F0891080C
:1000C0009108700890086E088E084B08760815088D
:1000D000E2010B0809080A080908E20109080908F1
:1000E0000A080A082D0009026809260009026D099C
:1000F0000600000868006F0046046606880AAF0222
:100100004B0C8F0003077D0A040C280046050008ED
:1001100046050F0C8F0003070008A8021E0C8F0075
:1001200003070008A8022D0C8F0003070008A8028F
:100130003C0C8F000306A8020008180C2400FC0CDD
:10014000510133000304330333031302E401030CAE
:10015000720133005101B300FC0C31004307B50AB2
:1001600011026001120220010008030472037203ED
:10017000030571037103F300AE0A3100180C24006B
:10018000FC0C51013200030432031203E4010002AB
:100190003200030C33005101B3004307D20A030CB1
:1001A0007201000832033203F300CD0A030437035F
:1001B0003603350303070008E10CB70100087A098C
:1001C000040C88014307DF0A000831001F0C5101AD
:1001D0001F0F4306190B400C2A000D0C2B00030CBB
:1001E0002D00E00C51013200B2033203320243060B
:1001F000FF0A03042D032B032A03F202F90A1F0C42
:10020000510125092C00040CA6010C023100EA0062
:100210004A024307130BEB004B024307140BED009C
:100220004D024306170B140BF102070B030B460597
:100230000008B1030E0C7101110213092A0091028A
:1002400013092B00010900080C0C2500410C0200C9
:100250000B0C06007000A50C3500460569007309FB
:1002600009022009E509A90249072F0B0B0C06001A
:10027000DF0969007309FA0C2A006B000109A90261
:10028000030C69017A09040C880143063A0B0B0C34
:1002900006000D023500DF09F40C2A00010C2B00CA
:1002A000010910023100B002030C290010023400D1
:1002B00094067309E80C2A00030C2B0001090B0CAF
:1002C0000600B4036D006900740303067309A902F4
:1002D000030C690143076E0B90033400040C2A00E1
:1002E0006B000109ED02640B0B0C0600F40C2A00F4
:1002F000010C2B000109D609170296019501030E86
:1003000032009D0974001402BD091202290073090C
:1003100009022009E5090B0C0600640C2A006B0099
:100320000109B402100294004307830B7400FF0C10
:100330002D00140C2A006B0001090D023500ED00A0
:100340004306F20B7A09040C88014306990B0A0C48
:100350002A006B0001097A09040C88014306970BF7
:1003600008022900730909022009E5090B0C06009F
:10037000DF091402BD090902B2004307F20BB402FF
:10038000100294004307970B1002060F4306DF0B81
:10039000060F0C0F4306DF0B0C0F120F4306DF0B8B
:1003A000120F180F4306DF0B180F200F4306E10B47
:1003B000200FF40C2A00010C2B000109510B100234
:1003C000E30B7000280C3300740014023F09E509A8
:1003D000B402130294004307E50B6A00040C2B00DF
:0E03E0000109510B580CE509700069003A0B39
:0203EE00000805
:0203F000000803
:021FFE00EB0FE7
:00000001FF
