:020000040000FA
:10000000F90A070C210001024307030A010CAA00A8
:100010000307AB000306010A0008E2014008450897
:1000200049084C08E201FE08F008E208D608C908B1
:10003000BE08B308A908A00897088E0886087F089C
:10004000770871086A0864085F08590854084F085F
:100050004B08470843083F08E20189086B089F08DE
:100060002E087F088E0870089F0829089F08BF087F
:1000700089086B089F082E089F08BF088E08700823
:100080009F0809087F089F088708850867089F0858
:100090009108930855085F08910891087008900826
:1000A0006E088E084B0876081508E20199089B082F
:1000B000AA08A908090255092600210081030600A3
:1000C000000868006F00460466066C0AEF03640AC5
:1000D000040C280003057F0A200C8F0003077F0A09
:1000E000A802400C8F0003077F0AA802600C8F0053
:1000F00003077F0AA802800C8F000306A8024605AA
:100100000008140C24001C033E001E03E401FC0C38
:100110003E00030C7D017C014306960A03057E0325
:100120007E0303047D037D03FC028E0A1E02600130
:100130001D02200100083C00140C24001C033D009B
:100140001D03E40100023D00030C7C014306AC0AE0
:100150003D033D03FC02A80A7D01000803043303AC
:100160003203310303070008E10CB3010008610901
:100170000307B70A00083C001F0E1F0F4306E80ADA
:10018000400C2A000D0C2B00030C2D009C033D009D
:100190003D03070C7D014306D30A03042D032B0303
:1001A0002A03FD02CD0A1F0C5C0112092C00040C6D
:1001B000A6010C023C00010CAA000307AB000307D8
:1001C000AD000307E60AFC02DC0AD70A4605000870
:1001D000D00C2A00070C2B00BC033C03070C7C014D
:1001E0004306F70A03042B032A03FC02F20A01095F
:1001F0000008410C02000B0C0600A50C310046055E
:10020000690070005A0909020D09BB090B0C0600B0
:10021000A902030C690161090306020B0102320005
:10022000B709F40C2A00010C2B00010910023C0054
:10023000B002AE09130292019101030E3D00810943
:100240007F001F029B091D0229005A0909020D099E
:10025000BB090B0C0600640C2A006B000109BF02ED
:1002600010029F004307210B7F00FA0C2D00140C95
:100270002A006B0001090D02ED0043068D0B610998
:100280000306370B0A0C2A006B00010961090306FB
:10029000350B080229005A0909020D09BB090B0C8C
:1002A0000600B7091F029B091D02890143078D0B38
:1002B000BF0210029F004307350B1002060F4306D2
:1002C000790B060F0C0F4306790B0C0F120F430628
:1002D000790B120F180F4306790B180F200F4306E6
:1002E000770BF40C2A00010C2B000109160B280CCB
:1002F000300010023E007F001F022C09BB09BF0224
:100300001E029F0043077C0B6A00040C2B000109AE
:10031000280C90014307160B000B380CBB09F000AA
:1003200030024306B90B030C2900190C9000030797
:100330009B0B3000AB0BE9000A0C90000307A20BEB
:100340003000AB0BE900050C90000307A90B30004F
:10035000AB0BE900F0005A09F40C2A00010C2B0049
:1003600001090B0C0600F40C2A00010C2B000109FA
:0E037000900BE80C2A00030C2B000109000B77
:02037E00000875
:02038000000873
:021FFE00EB0FE7
:00000001FF
