:020000040000FA
:10000000160B070C210001024307030A010CAA008A
:100010000307AB000306010A0008E2014008450897
:1000200049084C08E201FE08F008E208D608C908B1
:10003000BE08B308A908A00897088E0886087F089C
:10004000770871086A0864085F08590854084F085F
:100050004B08470843083F08E20189086B089F08DE
:100060002E087F088E0870089F0829089F08BF087F
:1000700089086B089F082E089F08BF088E08700823
:100080009F0809087F089F088708850867089F0858
:100090009108930855085F08910891087008900826
:1000A0006E088E084B0876081508E20109080B084F
:1000B0000A080908E201090809080A080A080902E9
:1000C0005509260009025A090600000868006F0059
:1000D00046046606740AAF02640C8F000307690ABF
:1000E000040C2800460500084605140C8F00030781
:1000F0000008A802280C8F0003070008A8023C0C87
:100100008F0003070008A802500C8F000306A80206
:100110000008140C2400FC0C5C013E0003043E03A8
:100120003E031E02E401030C7D013E005C01BE00A3
:10013000FC0C3C004307A10A1C0260011D022001C7
:10014000000803047D037D0303057C037C03FE009C
:100150009A0A3C00140C2400FC0C5C013D000304D2
:100160003D031D03E40100023D00030C3E005C0161
:10017000BE004307BE0A030C7D0100083D033D039A
:10018000FE00B90A030433033203310303070008F6
:10019000E10CB30100086609040C88014307CB0A8F
:1001A00000083C001F0C5C011F0F4306050B400CB0
:1001B0002A000D0C2B00030C2D00E00C5C013D000F
:1001C000BD033D033D024306EB0A03042D032B034D
:1001D0002A03FD02E50A1F0C5C0112092C00040C25
:1001E000A6010C023C00EA004A024307FF0AEB00AA
:1001F0004B024307000BED004D024306030B000BBF
:10020000FC02F30AEF0A46050008D00C2A00070C8E
:100210002B00BC033C03070C7C014306140B0304B6
:100220002B032A03FC020F0B01090008410C0200FA
:100230000B0C06007000A50C3100460569005F0933
:1002400009020D09D109A90249071F0B0B0C060071
:10025000CB096900860C2D00ED022F0B160B5F09F0
:10026000FA0C2A006B000109A902030C6901660956
:10027000040C880143062C0B0B0C06000D02310008
:10028000CB09F40C2A00010C2B00010910023C00E0
:10029000B002C209130292019101030E3D008909C7
:1002A0007F001F02A9091D0229005F0909020D092B
:1002B000D1090B0C0600640C2A006B000109BF0277
:1002C00010029F004307510B7F00FA0C2D00140C05
:1002D0002A006B0001090D023100ED004306C40B3A
:1002E0006609040C88014306670B0A0C2A006B00A0
:1002F00001096609040C88014306650B0802290000
:100300005F0909020D09D1090B0C0600CB091F0278
:10031000A9090902BD004307C40BBF0210029F00D8
:100320004307650B1002060F4306AD0B060F0C0FBB
:100330004306AD0B0C0F120F4306AD0B120F180F37
:100340004306AD0B180F200F4306AF0B200FF40C24
:100350002A00010C2B000109460B1002B10B7000A2
:10036000280C3E007F001F022C09D109BF021E028B
:100370009F004307B30B6A00040C2B000109200CFB
:1003800090014307460B160B380CD109F0003002E0
:100390004306F00B030C2900190C90000307D20B45
:1003A0003000E20BE9000A0C90000307D90B300083
:1003B000E20BE900050C90000307E00B3000E20BB4
:1003C000E900F0005F09F40C2A00010C2B00010980
:1003D0000B0C0600F40C2A00010C2B000109C70BC2
:0C03E000E80C2A00030C2B000109290B7B
:0403EC0000080008FD
:021FFE00EB0FE7
:00000001FF
